{
  "address": "0x1C6686e806873786439E3C36A8740B99A9028eB4",
  "abi": [
    {
      "inputs": [],
      "stateMutability": "nonpayable",
      "type": "constructor"
    },
    {
      "anonymous": false,
      "inputs": [
        {
          "indexed": true,
          "internalType": "address",
          "name": "owner",
          "type": "address"
        },
        {
          "indexed": true,
          "internalType": "address",
          "name": "spender",
          "type": "address"
        },
        {
          "indexed": false,
          "internalType": "uint256",
          "name": "value",
          "type": "uint256"
        }
      ],
      "name": "Approval",
      "type": "event"
    },
    {
      "anonymous": false,
      "inputs": [
        {
          "indexed": true,
          "internalType": "address",
          "name": "from",
          "type": "address"
        },
        {
          "indexed": true,
          "internalType": "address",
          "name": "to",
          "type": "address"
        },
        {
          "indexed": false,
          "internalType": "uint256",
          "name": "value",
          "type": "uint256"
        }
      ],
      "name": "Transfer",
      "type": "event"
    },
    {
      "inputs": [
        {
          "internalType": "address",
          "name": "owner",
          "type": "address"
        },
        {
          "internalType": "address",
          "name": "spender",
          "type": "address"
        }
      ],
      "name": "allowance",
      "outputs": [
        {
          "internalType": "uint256",
          "name": "",
          "type": "uint256"
        }
      ],
      "stateMutability": "view",
      "type": "function"
    },
    {
      "inputs": [
        {
          "internalType": "address",
          "name": "spender",
          "type": "address"
        },
        {
          "internalType": "uint256",
          "name": "amount",
          "type": "uint256"
        }
      ],
      "name": "approve",
      "outputs": [
        {
          "internalType": "bool",
          "name": "",
          "type": "bool"
        }
      ],
      "stateMutability": "nonpayable",
      "type": "function"
    },
    {
      "inputs": [
        {
          "internalType": "address",
          "name": "account",
          "type": "address"
        }
      ],
      "name": "balanceOf",
      "outputs": [
        {
          "internalType": "uint256",
          "name": "",
          "type": "uint256"
        }
      ],
      "stateMutability": "view",
      "type": "function"
    },
    {
      "inputs": [],
      "name": "decimals",
      "outputs": [
        {
          "internalType": "uint8",
          "name": "",
          "type": "uint8"
        }
      ],
      "stateMutability": "view",
      "type": "function"
    },
    {
      "inputs": [
        {
          "internalType": "address",
          "name": "spender",
          "type": "address"
        },
        {
          "internalType": "uint256",
          "name": "subtractedValue",
          "type": "uint256"
        }
      ],
      "name": "decreaseAllowance",
      "outputs": [
        {
          "internalType": "bool",
          "name": "",
          "type": "bool"
        }
      ],
      "stateMutability": "nonpayable",
      "type": "function"
    },
    {
      "inputs": [
        {
          "internalType": "address",
          "name": "to",
          "type": "address"
        },
        {
          "internalType": "uint256",
          "name": "amount",
          "type": "uint256"
        }
      ],
      "name": "faucet",
      "outputs": [],
      "stateMutability": "nonpayable",
      "type": "function"
    },
    {
      "inputs": [
        {
          "internalType": "address",
          "name": "spender",
          "type": "address"
        },
        {
          "internalType": "uint256",
          "name": "addedValue",
          "type": "uint256"
        }
      ],
      "name": "increaseAllowance",
      "outputs": [
        {
          "internalType": "bool",
          "name": "",
          "type": "bool"
        }
      ],
      "stateMutability": "nonpayable",
      "type": "function"
    },
    {
      "inputs": [],
      "name": "initialSupply",
      "outputs": [
        {
          "internalType": "uint256",
          "name": "",
          "type": "uint256"
        }
      ],
      "stateMutability": "view",
      "type": "function"
    },
    {
      "inputs": [],
      "name": "name",
      "outputs": [
        {
          "internalType": "string",
          "name": "",
          "type": "string"
        }
      ],
      "stateMutability": "view",
      "type": "function"
    },
    {
      "inputs": [],
      "name": "symbol",
      "outputs": [
        {
          "internalType": "string",
          "name": "",
          "type": "string"
        }
      ],
      "stateMutability": "view",
      "type": "function"
    },
    {
      "inputs": [],
      "name": "totalSupply",
      "outputs": [
        {
          "internalType": "uint256",
          "name": "",
          "type": "uint256"
        }
      ],
      "stateMutability": "view",
      "type": "function"
    },
    {
      "inputs": [
        {
          "internalType": "address",
          "name": "to",
          "type": "address"
        },
        {
          "internalType": "uint256",
          "name": "amount",
          "type": "uint256"
        }
      ],
      "name": "transfer",
      "outputs": [
        {
          "internalType": "bool",
          "name": "",
          "type": "bool"
        }
      ],
      "stateMutability": "nonpayable",
      "type": "function"
    },
    {
      "inputs": [
        {
          "internalType": "address",
          "name": "from",
          "type": "address"
        },
        {
          "internalType": "address",
          "name": "to",
          "type": "address"
        },
        {
          "internalType": "uint256",
          "name": "amount",
          "type": "uint256"
        }
      ],
      "name": "transferFrom",
      "outputs": [
        {
          "internalType": "bool",
          "name": "",
          "type": "bool"
        }
      ],
      "stateMutability": "nonpayable",
      "type": "function"
    }
  ],
  "transactionHash": "0x1b93fddec5cf03621931db06e31caf8d93990e072ad065fb93326b47e2b8aad0",
  "args": [],
  "numDeployments": 1,
  "solcInputHash": "818fd6c999190159a0f3ca001c8c1bb9",
  "bytecode": "0x60806040526ec097ce7bc90715b34b9f10000000006005553480156200002457600080fd5b506040518060400160405280600381526020017f44414900000000000000000000000000000000000000000000000000000000008152506040518060400160405280600381526020017f44414900000000000000000000000000000000000000000000000000000000008152508160039081620000a29190620004c2565b508060049081620000b49190620004c2565b505050620000cb30600554620000d160201b60201c565b620006c4565b600073ffffffffffffffffffffffffffffffffffffffff168273ffffffffffffffffffffffffffffffffffffffff160362000143576040517f08c379a00000000000000000000000000000000000000000000000000000000081526004016200013a906200060a565b60405180910390fd5b62000157600083836200023e60201b60201c565b80600260008282546200016b91906200065b565b92505081905550806000808473ffffffffffffffffffffffffffffffffffffffff1673ffffffffffffffffffffffffffffffffffffffff168152602001908152602001600020600082825401925050819055508173ffffffffffffffffffffffffffffffffffffffff16600073ffffffffffffffffffffffffffffffffffffffff167fddf252ad1be2c89b69c2b068fc378daa952ba7f163c4a11628f55a4df523b3ef836040516200021e9190620006a7565b60405180910390a36200023a600083836200024360201b60201c565b5050565b505050565b505050565b600081519050919050565b7f4e487b7100000000000000000000000000000000000000000000000000000000600052604160045260246000fd5b7f4e487b7100000000000000000000000000000000000000000000000000000000600052602260045260246000fd5b60006002820490506001821680620002ca57607f821691505b602082108103620002e057620002df62000282565b5b50919050565b60008190508160005260206000209050919050565b60006020601f8301049050919050565b600082821b905092915050565b6000600883026200034a7fffffffffffffffffffffffffffffffffffffffffffffffffffffffffffffffff826200030b565b6200035686836200030b565b95508019841693508086168417925050509392505050565b6000819050919050565b6000819050919050565b6000620003a36200039d62000397846200036e565b62000378565b6200036e565b9050919050565b6000819050919050565b620003bf8362000382565b620003d7620003ce82620003aa565b84845462000318565b825550505050565b600090565b620003ee620003df565b620003fb818484620003b4565b505050565b5b81811015620004235762000417600082620003e4565b60018101905062000401565b5050565b601f82111562000472576200043c81620002e6565b6200044784620002fb565b8101602085101562000457578190505b6200046f6200046685620002fb565b83018262000400565b50505b505050565b600082821c905092915050565b6000620004976000198460080262000477565b1980831691505092915050565b6000620004b2838362000484565b9150826002028217905092915050565b620004cd8262000248565b67ffffffffffffffff811115620004e957620004e862000253565b5b620004f58254620002b1565b6200050282828562000427565b600060209050601f8311600181146200053a576000841562000525578287015190505b620005318582620004a4565b865550620005a1565b601f1984166200054a86620002e6565b60005b8281101562000574578489015182556001820191506020850194506020810190506200054d565b8683101562000594578489015162000590601f89168262000484565b8355505b6001600288020188555050505b505050505050565b600082825260208201905092915050565b7f45524332303a206d696e7420746f20746865207a65726f206164647265737300600082015250565b6000620005f2601f83620005a9565b9150620005ff82620005ba565b602082019050919050565b600060208201905081810360008301526200062581620005e3565b9050919050565b7f4e487b7100000000000000000000000000000000000000000000000000000000600052601160045260246000fd5b600062000668826200036e565b915062000675836200036e565b925082820190508082111562000690576200068f6200062c565b5b92915050565b620006a1816200036e565b82525050565b6000602082019050620006be600083018462000696565b92915050565b6112f980620006d46000396000f3fe608060405234801561001057600080fd5b50600436106100cf5760003560e01c8063395093511161008c57806395d89b411161006657806395d89b4114610228578063a457c2d714610246578063a9059cbb14610276578063dd62ed3e146102a6576100cf565b806339509351146101ac57806370a08231146101dc5780637b56c2b21461020c576100cf565b806306fdde03146100d4578063095ea7b3146100f257806318160ddd1461012257806323b872dd14610140578063313ce56714610170578063378dc3dc1461018e575b600080fd5b6100dc6102d6565b6040516100e99190610b94565b60405180910390f35b61010c60048036038101906101079190610c4f565b610368565b6040516101199190610caa565b60405180910390f35b61012a61038b565b6040516101379190610cd4565b60405180910390f35b61015a60048036038101906101559190610cef565b610395565b6040516101679190610caa565b60405180910390f35b6101786103c4565b6040516101859190610d5e565b60405180910390f35b6101966103cd565b6040516101a39190610cd4565b60405180910390f35b6101c660048036038101906101c19190610c4f565b6103d3565b6040516101d39190610caa565b60405180910390f35b6101f660048036038101906101f19190610d79565b61040a565b6040516102039190610cd4565b60405180910390f35b61022660048036038101906102219190610c4f565b610452565b005b610230610474565b60405161023d9190610b94565b60405180910390f35b610260600480360381019061025b9190610c4f565b610506565b60405161026d9190610caa565b60405180910390f35b610290600480360381019061028b9190610c4f565b61057d565b60405161029d9190610caa565b60405180910390f35b6102c060048036038101906102bb9190610da6565b6105a0565b6040516102cd9190610cd4565b60405180910390f35b6060600380546102e590610e15565b80601f016020809104026020016040519081016040528092919081815260200182805461031190610e15565b801561035e5780601f106103335761010080835404028352916020019161035e565b820191906000526020600020905b81548152906001019060200180831161034157829003601f168201915b5050505050905090565b600080610373610627565b905061038081858561062f565b600191505092915050565b6000600254905090565b6000806103a0610627565b90506103ad8582856107f8565b6103b8858585610884565b60019150509392505050565b60006012905090565b60055481565b6000806103de610627565b90506103ff8185856103f085896105a0565b6103fa9190610e75565b61062f565b600191505092915050565b60008060008373ffffffffffffffffffffffffffffffffffffffff1673ffffffffffffffffffffffffffffffffffffffff168152602001908152602001600020549050919050565b6104703083670de0b6b3a76400008461046b9190610ea9565b610884565b5050565b60606004805461048390610e15565b80601f01602080910402602001604051908101604052809291908181526020018280546104af90610e15565b80156104fc5780601f106104d1576101008083540402835291602001916104fc565b820191906000526020600020905b8154815290600101906020018083116104df57829003601f168201915b5050505050905090565b600080610511610627565b9050600061051f82866105a0565b905083811015610564576040517f08c379a000000000000000000000000000000000000000000000000000000000815260040161055b90610f5d565b60405180910390fd5b610571828686840361062f565b60019250505092915050565b600080610588610627565b9050610595818585610884565b600191505092915050565b6000600160008473ffffffffffffffffffffffffffffffffffffffff1673ffffffffffffffffffffffffffffffffffffffff16815260200190815260200160002060008373ffffffffffffffffffffffffffffffffffffffff1673ffffffffffffffffffffffffffffffffffffffff16815260200190815260200160002054905092915050565b600033905090565b600073ffffffffffffffffffffffffffffffffffffffff168373ffffffffffffffffffffffffffffffffffffffff160361069e576040517f08c379a000000000000000000000000000000000000000000000000000000000815260040161069590610fef565b60405180910390fd5b600073ffffffffffffffffffffffffffffffffffffffff168273ffffffffffffffffffffffffffffffffffffffff160361070d576040517f08c379a000000000000000000000000000000000000000000000000000000000815260040161070490611081565b60405180910390fd5b80600160008573ffffffffffffffffffffffffffffffffffffffff1673ffffffffffffffffffffffffffffffffffffffff16815260200190815260200160002060008473ffffffffffffffffffffffffffffffffffffffff1673ffffffffffffffffffffffffffffffffffffffff168152602001908152602001600020819055508173ffffffffffffffffffffffffffffffffffffffff168373ffffffffffffffffffffffffffffffffffffffff167f8c5be1e5ebec7d5bd14f71427d1e84f3dd0314c0f7b2291e5b200ac8c7c3b925836040516107eb9190610cd4565b60405180910390a3505050565b600061080484846105a0565b90507fffffffffffffffffffffffffffffffffffffffffffffffffffffffffffffffff811461087e5781811015610870576040517f08c379a0000000000000000000000000000000000000000000000000000000008152600401610867906110ed565b60405180910390fd5b61087d848484840361062f565b5b50505050565b600073ffffffffffffffffffffffffffffffffffffffff168373ffffffffffffffffffffffffffffffffffffffff16036108f3576040517f08c379a00000000000000000000000000000000000000000000000000000000081526004016108ea9061117f565b60405180910390fd5b600073ffffffffffffffffffffffffffffffffffffffff168273ffffffffffffffffffffffffffffffffffffffff1603610962576040517f08c379a000000000000000000000000000000000000000000000000000000000815260040161095990611211565b60405180910390fd5b61096d838383610afa565b60008060008573ffffffffffffffffffffffffffffffffffffffff1673ffffffffffffffffffffffffffffffffffffffff168152602001908152602001600020549050818110156109f3576040517f08c379a00000000000000000000000000000000000000000000000000000000081526004016109ea906112a3565b60405180910390fd5b8181036000808673ffffffffffffffffffffffffffffffffffffffff1673ffffffffffffffffffffffffffffffffffffffff16815260200190815260200160002081905550816000808573ffffffffffffffffffffffffffffffffffffffff1673ffffffffffffffffffffffffffffffffffffffff168152602001908152602001600020600082825401925050819055508273ffffffffffffffffffffffffffffffffffffffff168473ffffffffffffffffffffffffffffffffffffffff167fddf252ad1be2c89b69c2b068fc378daa952ba7f163c4a11628f55a4df523b3ef84604051610ae19190610cd4565b60405180910390a3610af4848484610aff565b50505050565b505050565b505050565b600081519050919050565b600082825260208201905092915050565b60005b83811015610b3e578082015181840152602081019050610b23565b60008484015250505050565b6000601f19601f8301169050919050565b6000610b6682610b04565b610b708185610b0f565b9350610b80818560208601610b20565b610b8981610b4a565b840191505092915050565b60006020820190508181036000830152610bae8184610b5b565b905092915050565b600080fd5b600073ffffffffffffffffffffffffffffffffffffffff82169050919050565b6000610be682610bbb565b9050919050565b610bf681610bdb565b8114610c0157600080fd5b50565b600081359050610c1381610bed565b92915050565b6000819050919050565b610c2c81610c19565b8114610c3757600080fd5b50565b600081359050610c4981610c23565b92915050565b60008060408385031215610c6657610c65610bb6565b5b6000610c7485828601610c04565b9250506020610c8585828601610c3a565b9150509250929050565b60008115159050919050565b610ca481610c8f565b82525050565b6000602082019050610cbf6000830184610c9b565b92915050565b610cce81610c19565b82525050565b6000602082019050610ce96000830184610cc5565b92915050565b600080600060608486031215610d0857610d07610bb6565b5b6000610d1686828701610c04565b9350506020610d2786828701610c04565b9250506040610d3886828701610c3a565b9150509250925092565b600060ff82169050919050565b610d5881610d42565b82525050565b6000602082019050610d736000830184610d4f565b92915050565b600060208284031215610d8f57610d8e610bb6565b5b6000610d9d84828501610c04565b91505092915050565b60008060408385031215610dbd57610dbc610bb6565b5b6000610dcb85828601610c04565b9250506020610ddc85828601610c04565b9150509250929050565b7f4e487b7100000000000000000000000000000000000000000000000000000000600052602260045260246000fd5b60006002820490506001821680610e2d57607f821691505b602082108103610e4057610e3f610de6565b5b50919050565b7f4e487b7100000000000000000000000000000000000000000000000000000000600052601160045260246000fd5b6000610e8082610c19565b9150610e8b83610c19565b9250828201905080821115610ea357610ea2610e46565b5b92915050565b6000610eb482610c19565b9150610ebf83610c19565b9250828202610ecd81610c19565b91508282048414831517610ee457610ee3610e46565b5b5092915050565b7f45524332303a2064656372656173656420616c6c6f77616e63652062656c6f7760008201527f207a65726f000000000000000000000000000000000000000000000000000000602082015250565b6000610f47602583610b0f565b9150610f5282610eeb565b604082019050919050565b60006020820190508181036000830152610f7681610f3a565b9050919050565b7f45524332303a20617070726f76652066726f6d20746865207a65726f2061646460008201527f7265737300000000000000000000000000000000000000000000000000000000602082015250565b6000610fd9602483610b0f565b9150610fe482610f7d565b604082019050919050565b6000602082019050818103600083015261100881610fcc565b9050919050565b7f45524332303a20617070726f766520746f20746865207a65726f20616464726560008201527f7373000000000000000000000000000000000000000000000000000000000000602082015250565b600061106b602283610b0f565b91506110768261100f565b604082019050919050565b6000602082019050818103600083015261109a8161105e565b9050919050565b7f45524332303a20696e73756666696369656e7420616c6c6f77616e6365000000600082015250565b60006110d7601d83610b0f565b91506110e2826110a1565b602082019050919050565b60006020820190508181036000830152611106816110ca565b9050919050565b7f45524332303a207472616e736665722066726f6d20746865207a65726f20616460008201527f6472657373000000000000000000000000000000000000000000000000000000602082015250565b6000611169602583610b0f565b91506111748261110d565b604082019050919050565b600060208201905081810360008301526111988161115c565b9050919050565b7f45524332303a207472616e7366657220746f20746865207a65726f206164647260008201527f6573730000000000000000000000000000000000000000000000000000000000602082015250565b60006111fb602383610b0f565b91506112068261119f565b604082019050919050565b6000602082019050818103600083015261122a816111ee565b9050919050565b7f45524332303a207472616e7366657220616d6f756e742065786365656473206260008201527f616c616e63650000000000000000000000000000000000000000000000000000602082015250565b600061128d602683610b0f565b915061129882611231565b604082019050919050565b600060208201905081810360008301526112bc81611280565b905091905056fea2646970667358221220aa8ab0308189651aa980e37d67c0c63c77cf0ee870d7e9428df0fb9df528fb8b64736f6c63430008130033",
  "devdoc": {
    "events": {
      "Approval(address,address,uint256)": {
        "details": "Emitted when the allowance of a `spender` for an `owner` is set by a call to {approve}. `value` is the new allowance."
      },
      "Transfer(address,address,uint256)": {
        "details": "Emitted when `value` tokens are moved from one account (`from`) to another (`to`). Note that `value` may be zero."
      }
    },
    "kind": "dev",
    "methods": {
      "allowance(address,address)": {
        "details": "See {IERC20-allowance}."
      },
      "approve(address,uint256)": {
        "details": "See {IERC20-approve}. NOTE: If `amount` is the maximum `uint256`, the allowance is not updated on `transferFrom`. This is semantically equivalent to an infinite approval. Requirements: - `spender` cannot be the zero address."
      },
      "balanceOf(address)": {
        "details": "See {IERC20-balanceOf}."
      },
      "decimals()": {
        "details": "Returns the number of decimals used to get its user representation. For example, if `decimals` equals `2`, a balance of `505` tokens should be displayed to a user as `5.05` (`505 / 10 ** 2`). Tokens usually opt for a value of 18, imitating the relationship between Ether and Wei. This is the default value returned by this function, unless it's overridden. NOTE: This information is only used for _display_ purposes: it in no way affects any of the arithmetic of the contract, including {IERC20-balanceOf} and {IERC20-transfer}."
      },
      "decreaseAllowance(address,uint256)": {
        "details": "Atomically decreases the allowance granted to `spender` by the caller. This is an alternative to {approve} that can be used as a mitigation for problems described in {IERC20-approve}. Emits an {Approval} event indicating the updated allowance. Requirements: - `spender` cannot be the zero address. - `spender` must have allowance for the caller of at least `subtractedValue`."
      },
      "increaseAllowance(address,uint256)": {
        "details": "Atomically increases the allowance granted to `spender` by the caller. This is an alternative to {approve} that can be used as a mitigation for problems described in {IERC20-approve}. Emits an {Approval} event indicating the updated allowance. Requirements: - `spender` cannot be the zero address."
      },
      "name()": {
        "details": "Returns the name of the token."
      },
      "symbol()": {
        "details": "Returns the symbol of the token, usually a shorter version of the name."
      },
      "totalSupply()": {
        "details": "See {IERC20-totalSupply}."
      },
      "transfer(address,uint256)": {
        "details": "See {IERC20-transfer}. Requirements: - `to` cannot be the zero address. - the caller must have a balance of at least `amount`."
      },
      "transferFrom(address,address,uint256)": {
        "details": "See {IERC20-transferFrom}. Emits an {Approval} event indicating the updated allowance. This is not required by the EIP. See the note at the beginning of {ERC20}. NOTE: Does not update the allowance if the current allowance is the maximum `uint256`. Requirements: - `from` and `to` cannot be the zero address. - `from` must have a balance of at least `amount`. - the caller must have allowance for ``from``'s tokens of at least `amount`."
      }
    },
    "version": 1
  },
  "userdoc": {
    "kind": "user",
    "methods": {},
    "version": 1
  },
  "storageLayout": {
    "storage": [
      {
        "astId": 15,
        "contract": "contracts/DAI.sol:DAI",
        "label": "_balances",
        "offset": 0,
        "slot": "0",
        "type": "t_mapping(t_address,t_uint256)"
      },
      {
        "astId": 21,
        "contract": "contracts/DAI.sol:DAI",
        "label": "_allowances",
        "offset": 0,
        "slot": "1",
        "type": "t_mapping(t_address,t_mapping(t_address,t_uint256))"
      },
      {
        "astId": 23,
        "contract": "contracts/DAI.sol:DAI",
        "label": "_totalSupply",
        "offset": 0,
        "slot": "2",
        "type": "t_uint256"
      },
      {
        "astId": 25,
        "contract": "contracts/DAI.sol:DAI",
        "label": "_name",
        "offset": 0,
        "slot": "3",
        "type": "t_string_storage"
      },
      {
        "astId": 27,
        "contract": "contracts/DAI.sol:DAI",
        "label": "_symbol",
        "offset": 0,
        "slot": "4",
        "type": "t_string_storage"
      },
      {
        "astId": 2005,
        "contract": "contracts/DAI.sol:DAI",
        "label": "initialSupply",
        "offset": 0,
        "slot": "5",
        "type": "t_uint256"
      }
    ],
    "types": {
      "t_address": {
        "encoding": "inplace",
        "label": "address",
        "numberOfBytes": "20"
      },
      "t_mapping(t_address,t_mapping(t_address,t_uint256))": {
        "encoding": "mapping",
        "key": "t_address",
        "label": "mapping(address => mapping(address => uint256))",
        "numberOfBytes": "32",
        "value": "t_mapping(t_address,t_uint256)"
      },
      "t_mapping(t_address,t_uint256)": {
        "encoding": "mapping",
        "key": "t_address",
        "label": "mapping(address => uint256)",
        "numberOfBytes": "32",
        "value": "t_uint256"
      },
      "t_string_storage": {
        "encoding": "bytes",
        "label": "string",
        "numberOfBytes": "32"
      },
      "t_uint256": {
        "encoding": "inplace",
        "label": "uint256",
        "numberOfBytes": "32"
      }
    }
  }
}